:020000040800F2
:1000000070AB00205D02000899BE00081F9B00082D
:10001000ADBB0008ED360008C91101080000000062
:100020000000000000000000000000009D0100082A
:10003000FF3F000800000000F901000899DD0008FA
:1000400077020008770200087702000877020008AC
:10005000770200087702000877020008770200089C
:10006000014000087702000877020008B53E00084A
:10007000C53E000877020008D53E0008E53E0008AE
:10008000770200087702000877020008770200086C
:100090007702000877020008770200080B4000088A
:1000A000770200087702000877020008770200084C
:1000B0007702000895DE0008770200087702000842
:1000C000770200087702000877020008770200082C
:1000D00055D900087702000877020008FDE80008FB
:1000E000770200087702000877020008770200080C
:1000F00077020008770200087702000877020008FC
:1001000077020008770200087702000877020008EB
:100110007702000877020008A5DE000877020008D1
:1001200077020008770200087702000877020008CB
:1001300077020008000000000000000077020008BD
:100140007702000877020008770200089DBE0008C9
:10015000770200087702000877020008770200089B
:10016000770200087702000877020008770200088B
:10017000770200087702000800000000000000007D
:100180007702000877020008DFF80CD000F026FFA5
:1001900000480047BD2B010870AB00202C4B1968AC
:1001A0000868B0E8F04F80F30988BFF36F8F4FF015
:1001B000000080F3118870470000000008480068C4
:1001C000006880F308884FF0000080F3148862B65E
:1001D00061B6BFF34F8FBFF36F8F00DF00BF00BF6B
:1001E00008ED00E0DFF80C00016841F470010160E7
:1001F000704700BF88ED00E0EFF30980BFF36F8F19
:10020000134B1A681EF0100F08BF20ED108A20E96A
:10021000F04F106009B44FF0BF0080F31188BFF3B6
:100220004F8FBFF36F8F13F095FB4FF0000080F3FB
:10023000118809BC19680868B0E8F04F1EF0100F6B
:1002400008BFB0EC108A80F30988BFF36F8F704746
:1002500030030020EFF30580704700000648804718
:1002600006480047FEE7FEE7FEE7FEE7FEE7FEE79B
:10027000FEE7FEE7FEE7FEE781DE000889010008F1
:100280002DE9F05F0546002092469B4688460646CB
:10029000814640241BE0284641464746224600F05E
:1002A00006FD53465A46C01A914110D311461846CE
:1002B000224600F0EDFC2D1A67EB01084F4622465E
:1002C0000120002100F0E4FC17EB00094E41201E44
:1002D000A4F10104DFDC484631462A464346BDE826
:1002E000F09F40EA01039B0703D009E008C9121FF1
:1002F00008C0042AFAD203E011F8013B00F8013BE0
:10030000521EF9D27047D2B201E000F8012B491E0B
:10031000FBD270470022F6E710B513460A460446A2
:100320001946FFF7F0FF204610BD30B50546002006
:10033000034600E05B1C934205D2EC5CC85C201ACB
:1003400001D1002CF6D130BD0246C9B200E0401CFC
:100350000378002BFBD102E003788B4203D0401ED0
:100360009042F9D2002070470FB400B58DB010A9AB
:1003700009900B9000914FF0FF300A9000200C90F4
:1003800005480690054807906A4609A80F9900F0AD
:10039000C5FC0DB05DF814FB390D0008570D0008C1
:1003A0002DE9FF5F1D464FF0FF3BD5E90146914621
:1003B0005F464FF00008A9697F1C01988847296AA9
:1003C000824688470028F6D1BAF1FF3F0CD024F4CA
:1003D000C064002E19DD600614D5BAF12B0F09D0C8
:1003E000BAF12D0F0ED103E0584604B0BDE8F09FDE
:1003F00044F48064A9697F1C01988847761E824670
:10040000002E02DDBAF1300F03D0B9F1000F26D073
:1004100032E0A969761E44F400747F1C0198884775
:100420008246002E05DDBAF1780F06D0BAF1580FDA
:1004300003D0B9F1000F10D01EE0B9F1000F02D0C7
:10044000B9F1100F18D1A969761E24F400747F1C2D
:10045000019888478246102002E0082000E00A2028
:10046000814609E008FB0908A969761E44F4007476
:100470007F1C019888478246002E05DD494650467C
:1004800000F037FC0028EDDAE96901988847A005FB
:1004900002D46FF00100A8E7E00725D1600613D56C
:1004A000600502D5C8F1000000E0404629680A1D39
:1004B0002A600968220501D5087015E0220701D5D8
:1004C000088011E008600FE02868011D29600068BD
:1004D000210502D580F8008006E0210702D5A0F8AA
:1004E000008001E0C0F8008038467EE72DE9FF4F2C
:1004F000087883B09946FF2805D0491C2D2804D0E0
:100500000024002008E000200BE00124F9E700EBC4
:10051000800003EB4000491C0B78FF2BF7D104B19E
:10052000404200230293147819461D462D2C01D019
:100530002B2C04D1521C2D2C13D000240294AA463B
:100540001478FF2C0FD00A25A3FB057801FB058149
:100550004FF0000C03FB0C11521CE3194AEB010194
:10056000EEE70124EAE7814453EA010002D019F5DD
:10057000C87F06DA03980021C0E9001107B0BDE882
:10058000F08F0025AE4E2F46DFF8B882184600F0F7
:10059000A5FCCDE90001B9F1000002DAC9F10004BF
:1005A00000E004460023A74A1AEB030B42EB045A6F
:1005B00012E0E00707D02A4633463846414600F0AD
:1005C000ECF9074688462A4633461046194600F09D
:1005D000E4F905460E466410002CEAD1DDE900017D
:1005E000B9F1000F5A46534606DA00F048FA3A4687
:1005F000434600F044FA05E000F0CFF93A4643469E
:1006000000F0CBF9029A0AB181F00041039AC2E9E5
:100610000001B3E72DE9FF4F1F468DB0D7E9014632
:100620004FF0FF382E2045464FF000090B90B96976
:100630006D1C0E988847396A824688470028F6D193
:10064000BAF1FF3F0AD024F4D064002E11DDBAF1D4
:100650002B0F08D0BAF12D0F0BD102E0404611B09C
:100660008DE744F48064B9696D1C0E988847824612
:10067000761E6946600501D52D2000E02B208DF8FF
:10068000000001F1010B0DF1200809E0B9696D1CB2
:100690000E98884782460F9844F40074761E0560D1
:1006A000002E02DDBAF1300FF0D00B998A453ED111
:1006B00044F0800406E00F99681CA9F1010944F494
:1006C00000740860B9696D1C761E0E9888478246D2
:1006D0003028F0D02BE00B998A4505D1200603D4B1
:1006E00044F08004761E18E0504611F0BDFE08B3B9
:1006F0000DF11301761E44F400748B4508D2AAF163
:1007000030000BF8010B200607D5A9F1010003E02A
:10071000200602D409F101008146A00502D50F99F7
:10072000681C0860B9696D1C0E9888478246002EC7
:10073000D1DC53E0002E51DDBAF1650F02D0BAF1E1
:10074000450F4BD1A00549D5B9696D1C24F44074FF
:10075000761E0E9888478246002E0CDD2B2804D08A
:10076000BAF12D0F07D144F48074B9696D1C0E984D
:1007700088478246761EE00501D52D2100E02B2119
:1007800008F8011BCDF82C8021E00DF12901761E1F
:1007900044F4007488450CD2AAF1300010F0FF0038
:1007A00088F8000002D10B99884509D908F10108A1
:1007B00006E0E00501D5244801E042F20F708146D1
:1007C000B9696D1C0E98884782460F980560002E07
:1007D00004DD504611F048FE0028D6D1F9690E9884
:1007E0008847FF208BF8000088F800000020069062
:1007F00007904B466A4608A906A8FFF777FEA005B2
:1008000002D46FF001002AE714F0240F0AD0E007A9
:1008100014D1DDE906123868031D3B600068C0E9A9
:1008200000120BE0DDE9060100F000FA0146E007E6
:1008300004D13868021D3A600068016028460EE75E
:10084000000014400000F03FF1D8FFFF2DE9FE4FFB
:10085000804681EA0300C00F0C46009021F0004161
:1008600023F00045B8EB0200A94105D240462146DD
:1008700090461C460B46024623F00040104347D0EA
:10088000270DC7F30A00C3F30A510290401A0190E2
:1008900040286BDAC3F3130040F4801B00989246A3
:1008A00020B10023D2EB030A63EB0B0B01985946EE
:1008B000C0F14002504600F0EBF906460D465046A6
:1008C0005946019A00F003FA10EB08006141002438
:1008D00087EA115284EAE7731A4340D0009A62B360
:1008E000019A012A4FEA075215DC001B61EB020155
:1008F0004FF0004202EA0752CDE90042001C41F5E8
:10090000801132462B4600F09BFA03B0BDE8F08F11
:1009100040462146F9E7001B61EB0201001C41F54E
:10092000801300185B412018A2F5001747EB030164
:1009300040EAD570B6196D4111E06D084FEA3606F0
:1009400045EAC0754FEA0752001B61EB0201001C2B
:1009500041F5801149084FEA3000001951413246F3
:100960002B4603B0BDE8F04F00F05BBA00980122BF
:1009700040000023D0EB020263EBE07300982146B5
:100980004FEAE074B8EB000061EB0401E9E783F0A3
:1009900000435BE781F0004158E72DE9FE4F81EA13
:1009A000030404F0004421F0004100944FF0000BD8
:1009B00023F0004350EA01045ED052EA03045BD006
:1009C000C3F30A54C1F30A552C44A4F2F33401943E
:1009D000A0FB0254C1F3130141F48011C3F31303CC
:1009E00043F4801301FB024400FB034E840A970A80
:1009F00044EA815447EA8357A4FB076802958D0AAD
:100A000005FB07854FEA932C04FB0C542705029D38
:100A10004FEA065847EA1637B5EB08056EEB070CA8
:100A2000870E920E47EA811742EA8312A7FB020162
:100A3000B6EB0B0164EB00042B0D43EA0C335E189C
:100A400044EB1C50DA465146E7FB0201C5F31304A0
:100A50004FEA0B3343EA14534FEA0432019C43EA52
:100A60000603A4F10C040294009CCDE900B400F04C
:100A7000E7F903B0BDE8F08F00200146F9E72DE962
:100A8000F04D81EA030404F0004B21F000451446C8
:100A90004FF0000A23F0004150EA050220D054EA4A
:100AA00001021DD0C5F30A570246C5F31303C1F373
:100AB0001300C1F30A5640F4801543F48013A7EBEA
:100AC0000608101BD64608F2FD3873EB050002D36A
:100AD00008F1010801E092185B41B8F1000F03DA58
:100AE00000200146BDE8F08D00204FF4801106463D
:100AF00084460EE0171B73EB050705D3121B63EB4F
:100B0000050306434CEA010C49084FEA30009218ED
:100B10005B4150EA0107EDD152EA030012D082EAAC
:100B2000040083EA0501084305D0101BAB4106D23F
:100B30000122002306E000224FF0004302E06FF0A4
:100B4000010253101AEB06004CEB085110EB0A009F
:100B500041EB0B01BDE8F04D00F063B90EB5C10FDC
:100B600080EAE0700844CA07002140F233438DE870
:100B70000E000A460B4600F063F903B000BD0EB547
:100B800040F2334102910021CDE900110A460B46A3
:100B900000F056F903B000BD70B5C1F30A5201F080
:100BA00000450024C1F3130140F2FF3341F48011EA
:100BB0009A4201DA002070BD40F233439A42A2F219
:100BC000334203DC524200F072F800E090402C43C4
:100BD000F1D0404270BD00F0004230F000400AD039
:100BE000C10D01F56071C0F3160042EA0151C2085F
:100BF00040071143704700200146704730B5041E7E
:100C000071F1000404DB4FF00044404264EB010149
:100C1000141E73F1000405DB1C464FF000435242E2
:100C200063EB04038B4208BF824230BD01F00043F6
:100C300030B421F0004150EA010206D00A0DA2F5BD
:100C40006072C1F31301002A02DC30BC002070473F
:100C5000440F44EAC104C100E01830BC00EBC250AC
:100C600000F08AB830B50B4601460020202201244E
:100C700009E021FA02F59D4205D303FA02F5491B6A
:100C800004FA02F52844151EA2F10102F1DC30BD80
:100C9000202A04DB203A00FA02F10020704791403C
:100CA000C2F1200320FA03F3194390407047202A31
:100CB00004DB203A21FA02F00021704721FA02F306
:100CC000D040C2F120029140084319467047202AC3
:100CD00006DBCB17203A41FA02F043EAE07306E064
:100CE00041FA02F3D040C2F1200291400843194674
:100CF00070473A2800D2303820F02002412A01D330
:100D0000A2F13700884201D34FF0FF307047000056
:100D1000026811441378016018467047D160044995
:100D200051610449116200211161114600F06EB950
:100D3000110D000801100008426842B1016811F865
:100D4000013B23B1521EC0E9001218467047012131
:100D5000C160881E704742685AB1C368016843B9D0
:100D600083688B4205D0491E521CC0E90012002046
:100D700070474FF0FF3070470029A8BF7047401CF4
:100D8000490008BF20F00100704710B4B0FA80FCA1
:100D900000FA0CF050EA010404BF10BC704749B1DE
:100DA000CCF1200421FA04F411FA0CF118BF01214E
:100DB00021430843A3EB0C01CB1D4FEA00614FEA2E
:100DC000102042BF002010BC704700EBC3501044FD
:100DD0000029A4BF10BC7047401C490008BF20F088
:100DE000010010BC704710B541000CD0C0F3C751D2
:100DF000962908DC7E2909DC06DB410204D000F0DC
:100E0000004040F07E5010BD002010BDC1F196049E
:100E1000C4F1200100FA01F1E040FFF7ADFFA0406E
:100E200010BD10B5141E73F1000408DA401C41F126
:100E3000000192185B411A4301D120F0010010BD5E
:100E40002DE9F04D92469B4611B1B1FA81F202E0D4
:100E5000B0FA80F220329046FFF71AFF04460F46A0
:100E600040EA0A0041EA0B0153465A46084313D0B0
:100E7000114653EA010019D0C8F140025046FFF76D
:100E800016FF05460E46504659464246FFF700FFFC
:100E9000084305D0012004E020463946BDE8F08D26
:100EA0000020054346EAE0762C4337430A98630561
:100EB000E40AA0EB08000022FD0A44EA47540A3085
:100EC00002D500200146E9E7010510196941DDE975
:100ED000084500196941BDE8F04DA2E70EB540F2A2
:100EE000334202920022CDE900221346FFF7A8FF09
:100EF00003B000BDC1F30A52C1F3130140F2FF3346
:100F000041F480119A4202DA00200146704740F213
:100F100033439A42A2F2334202DC5242FFF7C7BE89
:100F2000FFF7B6BE10B500F0004420F00040C20D3F
:100F3000C0F3160040F400007F2A07DA7D2A00DAA9
:100F40007D22763A00FA02F1002008E0962A09DCB8
:100F5000A2F1760100FA01F1C2F19602D040FFF74A
:100F60000BFF01E0963A9040002C00D0404210BDAB
:100F700030B5041E71F1000404DB4FF00044404220
:100F800064EB0101141E73F1000405DB1C464FF0F5
:100F90000043524263EB0403994208BF904230BDC4
:100FA000002801DBC0F10040002901DBC1F1004154
:100FB000814202D24FF0004004E04FF0005001D1D6
:100FC0004FF0C0404FEA2062EFF3008162F31F61EF
:100FD00081F300887047002070470000064C074DE1
:100FE00006E0E06840F0010394E8070098471034F9
:100FF000AC42F6D3FFF7CCF80446010824460108BA
:10100000C0B24FF4F05100F097B900002DE9F34F52
:101010008BB04FF0000801F10C000C464FF0010BB3
:1010200046460DF1080A0190626901210198904736
:10103000051E2DD0252D2CD0216A8847C0B16269AC
:10104000012101989047216A88470028F7D1411E65
:1010500062690198904700E0761CA1690B98884767
:10106000216A88470028F7D1E1690B988847DBE7B8
:10107000A1690B9888470746A84201D1761CD3E79F
:10108000E1690B9888477F1C02D1B8F1000F6FD03F
:1010900046E1002762693D463946019890472A2873
:1010A00004D162690121019890470125DFF88492FB
:1010B0006269012101989047A0F130010A290AD202
:1010C0004F45E5DC07EB870100EB4107303FDFD4FC
:1010D00045F01005ECE7E90601D46FF000476C28F5
:1010E0000AD04C2814D0682815D06A280DD074284E
:1010F0001CD07A281AD01DE062690121019890471E
:101100006C2802D045F0040514E045F002050DE01E
:1011100045F020050AE0626901210198904768289E
:1011200002D045F0080505E045F40065626901213B
:1011300001989047C4E9015765283DD019DC58282B
:101140007AD00CDC452837D004DC252826D041286D
:1011500031D131E046282FD047282CD12CE05B2814
:1011600077D0612828D063287CD0642823D15AE026
:10117000D0E06F2848D008DC66281DD067281BD037
:10118000692821D06E2816D127E0702845D0732811
:1011900068D0752847D078280DD14DE0A1690B980B
:1011A0008847054625283FF469AFE1690B988847D1
:1011B0006D1C3FF46AAFB3E023466A466FF001004E
:1011C0000B99FFF727FA9EE045F040006060A80702
:1011D00023464FF0000236D43EE0E8077FF447AFE5
:1011E0002068011D21600068290501D506701BE7F4
:1011F000290701D5068017E7A90703D5F117C0E92C
:10120000006111E706600FE745F040006060A80745
:1012100023464FF0080216D41EE040F60E0125EAE0
:101220000100606016E045F040006060A8072346BA
:101230004FF00A0207D40FE045F040006060A807B5
:1012400008D5234610226FF001000B99AFF3008000
:1012500059E007E0234610226FF001000B99FFF7D9
:101260009FF850E04FF000094F464B46632802D0EC
:101270005B2806D040E0E80601D40120A0600127E9
:101280003AE062690121019890475E2805D14FF04C
:1012900001096269494601989047216939B90021DD
:1012A0000A46534643F82120491C0829FADBB0B30B
:1012B000216969B9C11700EBD16253110AEB8301AF
:1012C00022F01F02821A01200B68904003430B603A
:1012D00062690121019890475D28E8D1B9F1000FBA
:1012E00009D00020514651F82020D24341F8202057
:1012F000401C0828F7DB02AB224600976FF0010084
:101300000B99AFF3008000280CDA401C08D1BBF128
:10131000000F05D04FF0FF300DB0BDE8F08FFFE7B4
:101320004046F9E7E90701D108F1010806444FF00A
:10133000000B79E6CCCCCC0C7F2801D9002208E048
:10134000064A02EB5002C007127800D1120902F0DF
:101350000F0201209040084070470000D44301086C
:1013600070B58C1810F8015B15F0070301D110F867
:10137000013B2A1106D110F8012B03E010F8016B94
:1013800001F8016B5B1EF9D12B0705D40023521E17
:101390000DD401F8013BFAE710F8013BCB1A921C7F
:1013A00003E013F8015B01F8015B521EF9D5A1427D
:1013B000D8D3002070BD30B502460B460020002176
:1013C00014E0545C604000240CE000F0800525B17E
:1013D000072585EA4005EDB201E045062D0E2846B9
:1013E000651CECB2082CF0D34C1CA1B29942E8DB8E
:1013F00030BD000008B500F0EFF800F0E1F800F0B3
:101400002BF910B101204649087087E00A2201211A
:10141000002011F0F3FF4248007810B941480078ED
:10142000E0B112F0B5F8404800884049088000203B
:101430003B4908703B49087012F0BCF800F0CCF84A
:1014400000F0BEF800203A4908703A4807F064FFFF
:1014500000F002F910B101203149087003E09DF855
:10146000000000F073F9684600F0D4F80028F6D1C7
:1014700012F098FC07463048007A012800D100E0BD
:10148000002004462C48B0F90000322801DA01207F
:1014900000E00020054604F095FE28490968401A3E
:1014A000502801D8012000E0002006462B462246A5
:1014B000314638460AF04AF821480078214909782F
:1014C000884221D01E480078042803D10E2002F063
:1014D0003DFA15E01A480078012807D0184800782E
:1014E000022803D016480078032803D1022002F016
:1014F0002DFA05E01248007810B9032002F026FA10
:101500000F4800780F4908700F48007828B10F483D
:101510000AF09CFF00200C49087000BF76E700002D
:101520007D0100207C010020780100207A0100204C
:1015300077010020F00500205C010020140300204A
:1015400074010020B801002058000020BC1B0020BE
:101550002DE9FF4104460E461CB9002004B0BDE849
:10156000F08112F015F8134B0FCB8DE80F001248E5
:1015700005681248077812F01DF827B112F012FC26
:10158000401BB04201D90020E8E79DED000A84ED40
:10159000000A9DED010A84ED010A9DED020A84ED29
:1015A000020A9DED030A84ED030A256101202075DE
:1015B00000BFD3E7882600202C030020280300204A
:1015C00010B511F0E5FF00200249087011F0F2FF9C
:1015D00010BD0000280300200020034908700349C3
:1015E0000870034908707047290300202A0300206F
:1015F0002B0300200021054A1170AA2801D10121E6
:1016000000E00021024A1170704700002A03002008
:101610002903002070B50446002511F0B9FF0B48DE
:1016200000880B49098888420BD00A480749098875
:10163000405C207005480088401CC0B20349088007
:10164000012511F0B7FF284670BD00007A01002087
:10165000780100208824002010B540220A490B4858
:1016600007F0CCFD044664B90848C06B48B1074890
:10167000C06B0068006820F008000449C96B096865
:101680000860204610BD000048240020F00500201E
:1016900070B505462C4694ED000A10EE101A084667
:1016A0000FF0EAFDE8B394ED010A10EE101A0846B7
:1016B0000FF0E2FDA8B394ED020A10EE101A0846EE
:1016C0000FF0DAFD68B394ED030A10EE101A084625
:1016D0000FF0D2FD28B394ED000AB0EEC00AF2EE8E
:1016E000040AB4EEE00AF1EE10FA29D894ED010AEA
:1016F000B0EEC00AF2EE040AB4EEE00AF1EE10FA1F
:101700001ED894ED020AB0EEC00ADFED0E0AB4EE68
:10171000E00AF1EE10FA13D894ED030AB5EEC00A10
:1017200000E00DE0F1EE10FA0ADB94ED030ADFEDC4
:10173000060AB4EEE00AF1EE10FA01D8012070BDFD
:101740000020FCE70000F04200002F442DE9F041AA
:1017500004463D480078062870D2DFE800F003090F
:10176000182B313BAA2C02D101203749087068E0C0
:10177000552C06D1002035490870022032490870E6
:1017800004E0AA2C02D000202F49087059E02F480D
:1017900001780078401C2D4A10702D4844541046A2
:1017A0000078102805D30020114608700320264930
:1017B000087046E02748047004202349087040E080
:1017C000FF2C03D105202049087002E02046FFF7D6
:1017D00011FF36E0FF2C2CD110211D48FFF7EBFD47
:1017E0001C490978884201D1012000E0002006460A
:1017F0001748FFF74DFF0546FFF7EEFEC6B1BDB136
:1018000011F0C6FE1448124AD2E901171368D268D3
:10181000C0E90272C0E9003112F0C4FA0F49086051
:1018200001200F49087011F0C5FE0120BDE8F081CC
:1018300002E02046FFF7DEFE03E0FFE7FFF7CCFE05
:1018400000BF00BF0020F1E7290300202A03002089
:10185000982600202B030020882600202C0300203F
:101860002803002000B58BB000203C4908804FF4CD
:10187000FA70C88088804880394803F0D7FC394A1C
:1018800007CA08AB07C308A9354803F0E3FC36488C
:1018900003F0CAF8182233490C3102A8FEF721FDE3
:1018A00002A9314803F082F9BB20304908700120B9
:1018B00003E0FF212D4A1154401C0F28F9DB2C486E
:1018C00008F08CFF2B48006840F0807029490860C0
:1018D0000020294948600846006840F0010008607F
:1018E00000220121082012F08DF8244908600846E2
:1018F000006808B902F08EFB2148042100230A0287
:10190000CDE900101FA1224812F030FA214803212E
:1019100000234FF40072CDE900101FA1214812F0FE
:1019200025FA2148032100234FF40072CDE900106D
:101930001EA1204812F01AFA1F48012100230A02B2
:10194000CDE900101DA1214812F010FA012801D0A4
:1019500002F060FB11F062FF0BB000BD5C010020E3
:10196000EC230020044201086C23002040230020C7
:1019700028240020FCED00E0001000E09001002091
:1019800080010020466C696768744374726C0000C3
:1019900021410008880100204261726F5461736B1D
:1019A000000000002D3300088401002041495F43FE
:1019B0006F6D6D00F51300088C010020536572698E
:1019C000616C50726F6D707400000000F136000899
:1019D0002DE9F0472DED068BF0EE40AAB0EE6A0A35
:1019E00000F0BAFFB0EE40AA4FF00108FE4890F8B0
:1019F00000900020FD490870FD48407A012802D17E
:101A00004FF0020812E0FA48407A022805D1F9485E
:101A1000007810B14FF0030808E0F548407A02283A
:101A200004D1F148007808B94FF0000809F0B4FB80
:101A300060B30020EC4908704FF47A71EE4808F06A
:101A40000AFE4FF47A71ED4808F005FE4FF47A7102
:101A5000EB4808F000FE4FF47A71EA4808F0FBFD0D
:101A6000E9480AF053FBE9480AF050FBE8480AF05D
:101A70004DFBE8480AF04AFBE7480AF047FBE74815
:101A80000AF044FBBDEC068BBDE8F087D848007A2D
:101A9000012803D10020D449087028E0D2480078FA
:101AA000042809D1DE480078012805D1CE49087004
:101AB0000020DB4908701AE0CB48007840B9CC48D8
:101AC000B0F90000322812DAC74880F800800EE032
:101AD000C5480078012807D0C3480078022803D001
:101AE000C1480078032802D1BF4880F80080BE4872
:101AF0000078022811D1B9F1020F0ED0C94890ED3B
:101B0000000ABB4880ED030AC7480AF0FFFAC7483D
:101B10000AF0FCFA0020C6490880C648007890B94F
:101B2000B148007801280BD0AF480078022807D0D0
:101B3000AD480078032803D0AB480078062802D1CE
:101B40000020A9490870BC4890ED000ADFEDBB0AEF
:101B5000B4EEE00AF1EE10FA08DC90ED000ADFEDD9
:101B6000B80AB4EEE00AF1EE10FA02D200209E4963
:101B70000870B44890ED000ADFEDB00AB4EEE00A58
:101B8000F1EE10FA08DC90ED000ADFEDAD0AB4EEDC
:101B9000E00AF1EE10FA02D2002093490870924850
:101BA000007818B190480078042826D14FF47A7153
:101BB000914808F050FD4FF47A71904808F04BFDC1
:101BC0004FF47A718E4808F046FD4FF47A718D48D3
:101BD00008F041FD8C480AF099FA8C480AF096FA10
:101BE0008B480AF093FA8B480AF090FA8A480AF078
:101BF0008DFA8A480AF08AFA44E77B480078072879
:101C000014D1914801887C4808F025FD8E48418810
:101C10007A4808F020FD8C488188794808F01BFD3F
:101C20008948C188774808F016FD2BE76E48007890
:101C3000052814D14FF4FA616F4808F00CFD4FF4F9
:101C4000FA616E4808F007FD4FF4FA616C4808F03D
:101C500002FD4FF4FA616B4808F0FDFC12E76248A0
:101C6000007801287ED002287DD003287CD0062869
:101C70007BD15F48B0F9000000EE900AF8EEE00A70
:101C800070EE8A0AB0EE600A9FED701ADFED700AFE
:101C900008F06AFFBDEEC00A10EE100A00B208EEAE
:101CA000100A5B4991ED0A0ABDEEC00A10EE101A47
:101CB00008B26FF09502962101F0E7FE00EE100ADF
:101CC000F8EEC00A504890ED0A0AB8EEC81A30EE95
:101CD000010A4E4890ED0A1A30EE010A30EE800AF1
:101CE000BDEEC00A10EE100A04B2494991ED0A0A8D
:101CF000BDEEC00A10EE101A08B26FF095029621E0
:101D000001F0C3FE00EE100AB8EEC00A3E48D0ED66
:101D10000A0AB8EEC81A71EE600A3C4890ED0A1A39
:101D200070EE810A30EEC00ABDEEC00A10EE100A55
:101D300005B2374991ED0A0ABDEEC00A10EE101A3D
:101D400008B26FF09502962101F09FFE00EE100A96
:101D5000B8EEC00A2C48D0ED0A0AB8EEC81A70EEE8
:101D6000810A03E0A4E047E1A3E02BE2274890EDDD
:101D70000A1A70EEC10A30EEC00ABDEEC00A10EEBB
:101D8000100A06B2224991ED0A0ABDEEC00A10EE11
:101D9000101A08B26FF09502962101F076FE00EE5F
:101DA000100AB8EEC00A1848D0ED0A0AB8EEC81AF0
:101DB00071EE600A154890ED0A1A70EEC10A30EE15
:101DC000200ABDEEC00A10EE100A07B2002C49DB53
:101DD000B4F52F7F46DC002D44DBB5F52F7F41DCC9
:101DE000002E3FDB36E0000074010020D40100200B
:101DF0005C01002077010020E0020020EC020020BE
:101E0000F8020020040300205C02002004020020ED
:101E1000B402002030020020D801002088020020F7
:101E20007501002030010020A4250020D0250020CD
:101E30001E03002020010020240100200000AA42EF
:101E40000000AAC2280100206C01002000002F44DD
:101E500000000000B6F52F7F04DC002F02DBB7F591
:101E60002F7F01DD012000E00020FE4908700022E4
:101E70004FF42F71204601F008FEFB49C880002274
:101E80004FF42F71284601F000FEF849C880002267
:101E90004FF42F71304601F0F8FDF549C88000225B
:101EA0004FF42F71384601F0F0FDF249C8808AE105
:101EB00000BFF148B0F9000000EE900AF8EEE00A29
:101EC00070EE8A0AB0EE600A1FED201A5FED200A5C
:101ED00008F04AFEBDEEC00A10EE100A00B208EE8D
:101EE000100AE64890ED0A0AF0EE408AE44890EDC8
:101EF0000A0AB0EE409AE34991ED0A0ABDEEC00A23
:101F000010EE101A08B26FF09502962101F0BDFD97
:101F100000EE100AB8EEC00AF0EE409AB8EEC80A19
:101F200030EE280A30EE090A30EE290ABDEEC00A6A
:101F300010EE100A04B2B8EEC80A30EE680A30EEAD
:101F4000090A30EE690ABDEEC00A10EE100A05B2A9
:101F5000B8EEC80A30EE280A30EE490A30EE690AB7
:101F6000BDEEC00A10EE100A06B2B8EEC80A30EE96
:101F7000680A30EE490A30EE290ABDEEC00A10EEBA
:101F8000100A07B2002C11DBB4F52F7F0EDC002DF8
:101F90000CDBB5F52F7F09DC002E07DBB6F52F7FB4
:101FA00004DC002F02DBB7F52F7F01DD012000E00C
:101FB0000020AC49087000224FF42F71204601F038
:101FC00064FDA949C88000224FF42F71284601F012
:101FD0005CFDA649C88000224FF42F71304601F005
:101FE00054FDA349C88000224FF42F71384601F0F8
:101FF0004CFDA049C880E6E09F48B0F90000A24926
:10200000B1F90010084400EE900AF8EEE00A70EE14
:102010008A0AB0EE600A1FED731A5FED730A08F0CA
:10202000A3FDBDEEC00A10EE100A00B208EE100AC1
:10203000944991ED0A0ABDEEC00A10EE101A08B2DA
:102040006FF09502962101F020FD00EE100AB8EE27
:10205000C00A8A48D0ED0A0AB8EEC81A70EE810AA2
:10206000874890ED0A1A70EE810A30EE200ABDEE24
:10207000C00A10EE100A04B2824991ED0A0ABDEEC0
:10208000C00A10EE101A08B26FF09502962101F006
:10209000FCFC00EE100AB8EEC00A7848D0ED0A0A3F
:1020A000B8EEC81A71EE600A754890ED0A1A70EE23
:1020B000810A30EEC00ABDEEC00A10EE100A05B269
:1020C000704991ED0A0ABDEEC00A10EE101A08B26E
:1020D0006FF09502962101F0D8FC00EE100AB8EEE0
:1020E000C00A6648D0ED0A0AB8EEC81A70EE810A36
:1020F000634890ED0A1A70EEC10A30EEC00ABDEED8
:10210000C00A10EE100A06B25E4991ED0A0ABDEE51
:10211000C00A10EE101A08B26FF09502962101F075
:10212000B4FC00EE100AB8EEC00A5448D0ED0A0A1A
:10213000B8EEC81A71EE600A514890ED0A1A70EEB6
:10214000C10A30EE200ABDEEC00A10EE100A07B236
:10215000002C11DBB4F52F7F0EDC002D0CDBB5F568
:102160002F7F09DC002E07DBB6F52F7F04DC002F64
:1021700002DBB7F52F7F01DD012000E000203949A7
:10218000087000224FF42F71204601F07EFC364982
:10219000C88000224FF42F71284601F076FC3349A5
:1021A000C88000224FF42F71304601F06EFC304998
:1021B000C88000224FF42F71384601F066FC2D498B
:1021C000C88000E000BF00BF2749C98808B20022CC
:1021D0004FF42F7101F059FC2349C8802349C98865
:1021E00008B200224FF42F7101F04FFC1F49C88044
:1021F0001F49C98808B200224FF42F7101F045FC35
:102200001B49C8801B49C98808B200224FF42F71AE
:1022100001F03BFC1749C8801748B0F9000032288C
:102220003DDA4FF47A71104808F015FA4FF47A71DC
:102230000E4808F010FA4FF47A710D4808F00BFAC6
:102240004FF47A710B4808F006FA0C4809F05EFF6B
:102250000B4809F05BFF0B4809F058FF0B4809F0E9
:1022600055FF15E0D4010020E0020020EC02002020
:10227000F8020020040300205C0100205C02002022
:1022800004020020B40200201E03002030020020BF
:10229000164809F03BFF164809F038FFACE4154832
:1022A000C088144A1289104481B2124808F0D3F948
:1022B0001148C088104A1289104481B20E4808F0B3
:1022C000CAF90E48C0880D4A1289104481B20B48E1
:1022D00008F0C1F90A48C088094A1289104481B23D
:1022E000074808F0B8F900BF86E40000D8010020D4
:1022F00088020020E0020020EC020020F80200200A
:102300000403002010B52DED028BB0EE408A264864
:10231000007802280BD0002024490880244809F0C6
:10232000F5FE244809F0F2FEBDEC028B10BD2248F8
:1023300090ED030A1E4880ED080A204890ED000A3F
:102340001B4880ED090AB0EE480A09F033FF18482F
:10235000D0ED0A0AB0EE600AB7EE001AFFEE000AEE
:1023600008F002FC134880ED080A154890ED000AB9
:10237000104880ED090AB0EE480A09F01BFF0D482D
:10238000D0ED0A0AB0EE600A9FED0E1ADFED0E0ADC
:1023900008F0EAFBBDEEC00A10EE100A00B20349D5
:1023A000088000BFC0E70000740100201E03002069
:1023B000A4250020D02500205C0100203001002051
:1023C0003401002000001643000016C310B5064873
:1023D00008F018F9054808F015F9054808F012F951
:1023E000044808F00FF910BDE0020020EC020020C4
:1023F000F80200200403002070B52DED048BF0EEF0
:10240000408A03F0E7FAB0EE408AA248007801283B
:1024100007D0A0480078022803D09E4800780328FF
:1024200001D1012000E00020044654B19A48B0F9DF
:102430000000B0F5E17F04DB9848007808B901207E
:1024400000E0002005469648007820B108F062FEC2
:1024500008B1012000E0002006462CB18E48B0F9FA
:102460000000B0F5E17F08DA8E4809F069FE8E4879
:1024700009F066FE8D4809F063FE8D4890ED000A74
:102480008C4880ED080A83480078032815D18248DB
:10249000B0F9040000EE100AB8EEC00ADFED860ABB
:1024A00030EE600ADFED850A80EE201A814890ED5B
:1024B000080A31EE000A80ED080A814890ED000A12
:1024C0007C4880ED090A7F4890ED000A764880ED4F
:1024D000090AB0EE680A774809F06CFE754890ED7D
:1024E0000A0A714880ED080AB2EE041ADFED720A9A
:1024F0002946B0EE680A09F0E5FE734890ED000A3F
:10250000724880ED080A63480078032815D16248B4
:10251000B0F9060000EE100AB8EEC00ADFED660A58
:1025200030EE600ADFED650A80EE201A674890ED14
:10253000080A31EE000A80ED080A654890ED000AAD
:10254000624880ED090A634890ED000A554880ED25
:10255000090AB0EE680A5D4809F02CFE5B4890ED70
:102560000A0A504880ED080AB2EE041ADFED520A5A
:102570002946B0EE680A09F0A5FE7CB9564890EDF0
:10258000000A564880ED000A002055490870474867
:1025900009F0BCFD534809F0B9FD77E046B1B0EE53
:1025A000C80ADFED510AB4EEE00AF1EE10FA1FDDC1
:1025B0003E4880ED088A4D4890ED000A3B4880ED8A
:1025C000090A454890ED000A444880ED000A0120C0
:1025D00043490870434809F099FDB2EE041ADFED53
:1025E000360A2946B0EE680A304809F06BFE4DE025
:1025F0003B48007860B9384890ED000A374880EDD4
:10260000000A384809F082FD0120354908703DE094
:102610003248D0ED000A304890ED001A70EEC10A41
:10262000B0EE600A0EF0D2FDB0EE409A2B4890ED6D
:10263000000A2C4880ED080A284890ED000A30EE88
:10264000490A284880ED090AB0EE680A09F0B2FD8F
:102650002448D0ED0A0AB0EE600A9FED251ADFED9E
:10266000250A08F081FA114880ED080A1F4890ED0C
:10267000000A0E4880ED090AB2EE041ADFED0E0AD8
:102680002946B0EE680A09F01DFE00BFBDEC048BC0
:1026900070BD0000740100205C010020D401002006
:1026A0004C0100205C02002004020020B402002043
:1026B0001C010020D80100200000FA43000048421D
:1026C000280100203C0100201801002030020020D9
:1026D00024010020380100202C01002018030020D4
:1026E0001C030020880200200AD7233C4001002060
:1026F0000000A0420000A0C230B589B00024884884
:102700000078062803D0874800888749088003F0AE
:1027100059FD86490968401A502840D94FF4FA708B
:102720008049C8808880488081480078401CC0B2B9
:102730007F490870142818DB002008707A48B0F927
:102740000000C82806DD78480088401E00B276499F
:1027500008800AE07448B0F90000C82805DA724819
:102760000088401C00B27049088000206D49088034
:1027700048720120087200206E49087001206E49DD
:1027800008700020664908706C48007828B901205C
:102790006A4908700D2001F0D9F809B030BD002059
:1027A0006649087010F0F4FE6548007801280ED1E3
:1027B00000206349087000BF06E0624931F810103C
:1027C00006AA22F81010401C0628F6DB012410F09F
:1027D000F1FE6CB3BDF81C10A1F57A7108B20022AD
:1027E0004FF47A7101F051F957490880BDF8200083
:1027F00040F21451884203D200204A4948720CE04A
:10280000BDF8200040F2A461884203D2012045496E
:10281000487202E0022043494872BDF8220040F2AB
:10282000A461884201DD012000E000203D490872DA
:102830004FF4FA703B498880C88048804248B0F91C
:10284000000008800846407A022805D000203A4956
:1028500008703849087061E037480078E8BBC82143
:102860006846FEF775FEC0B39DED001ADFED371A1E
:10287000DFED370A41EE210AB0EE600A0EF0D0FF1C
:1028800005B200224FF47A71284601F0FEF825497E
:10289000C8809DED011ADFED2D1ADFED2D0A41EE06
:1028A000210AB0EE600A0EF0BBFF05B200224FF421
:1028B0007A71284601F0E9F81A4988809DED021ADC
:1028C000DFED241ADFED220A41EE210AB0EE600AA4
:1028D0000EF0A6FF05B2002200E019E04FF47A7175
:1028E000284601F0D2F80F494880DDED030AB0EE2A
:1028F000600A0EF095FF05B200224FF42F712846B2
:1029000001F0C3F80749088001200A49087005E072
:1029100000200849087001200749087000BF3CE703
:10292000740100205C01002020030020140300201B
:102930002603002077010020250300202403002027
:102940001103002008260020220300200000484236
:102950000000FA4355558540F0EE400A9FED010A0C
:10296000704700000000000070B507F007F9D020A4
:1029700000F0C5FC0446582C38D05C217DA0FDF742
:10298000E3FC28B15C217BA0FDF7DEFC401C00E0ED
:1029900078A006462F21FDF7D7FC88B15C2175A0F1
:1029A000FDF7D2FC28B15C2172A0FDF7CDFC401CE4
:1029B00000E070A006462F21FDF7C6FC401C0BE08E
:1029C0005C216CA0FDF7C0FC28B15C2169A0FDF77B
:1029D000BBFC401C00E067A005462346492229466F
:1029E0006AA010F061FD4FF0FF3070BDB621E0200D
:1029F00000F092FC10B14FF0FF30F6E70A2010F023
:102A000023FE00F00FF9002837D05C2159A0FDF714
:102A10009BFC28B15C2157A0FDF796FC401C00E010
:102A200054A006462F21FDF78FFC88B15C2151A0F0
:102A3000FDF78AFC28B15C214EA0FDF785FC401C07
:102A400000E04CA006462F21FDF77EFC401C0BE069
:102A50005C2148A0FDF778FC28B15C2145A0FDF77A
:102A600073FC401C00E043A005465522294651A0B6
:102A700010F01AFD4FF0FF30B7E75721F42000F0B7
:102A80004BFC28B91021F52000F046FC002837D077
:102A90005C2138A0FDF758FC28B15C2135A0FDF77A
:102AA00053FC401C00E033A006462F21FDF74CFCF0
:102AB00088B15C212FA0FDF747FC28B15C212DA037
:102AC000FDF742FC401C00E02AA006462F21FDF73E
:102AD0003BFC401C0BE05C2126A0FDF735FC28B137
:102AE0005C2124A0FDF730FC401C00E021A005463D
:102AF0005B2229463AA010F0D7FC4FF0FF3074E774
:102B0000642010F0A1FD5C211AA0FDF71DFC28B186
:102B10005C2118A0FDF718FC401C00E015A006463B
:102B20002F21FDF711FC88B15C2112A0FDF70CFCF0
:102B300028B15C210FA0FDF707FC401C00E00DA0B0
:102B400006462F21FDF700FC401C0BE05C2109A08C
:102B5000FDF7FAFB28B15C2106A0FDF7F5FB401C50
:102B600000E004A005465F22294627A010F09CFC47
:102B700000203AE74170706C69636174696F6E5C44
:102B8000424D503338382E63000000005B25733A05
:102B900025645D20424D5033383820496E697420D9
:102BA0004552524F52212049443D30782530325809
:102BB0000D0A00005B25733A25645D20424D5033B9
:102BC00038382063616C6962726174696F6E20725B
:102BD000656164206661696C6564210D0A0000000E
:102BE0005B25733A25645D20424D503338382063AD
:102BF0006F6E66696775726174696F6E2066616970
:102C00006C6564210D0A00005B25733A25645D2024
:102C1000424D5033383820496E6974204F4B210D96
:102C20000A00000000B587B0182301AA8821EC2013
:102C30000BF039F818B14FF0FF3007B000BD9DF828
:102C400004009DF8051040EA0120334908809DF8F2
:102C500006009DF8071040EA012000B22E49488086
:102C60009DF808009DF8091040EA012000B22A49A9
:102C700088809DF80A009DF80B1040EA0120264943
:102C8000C8809DF80C009DF80D1040EA012000B2AC
:102C9000214908819DF80E009DF80F1040EA01209F
:102CA00000B21D4948819DF810009DF8111040EABE
:102CB000012000B2184988819DF812009DF8131078
:102CC00040EA012000B21449C8819DF814009DF823
:102CD000151040EA012000B20F4908829DF8160045
:102CE0009DF8171040EA012000B20B4948829DF878
:102CF00018009DF8191040EA012000B206498882A8
:102D00009DF81A009DF81B1040EA012000B202490C
:102D1000C882002091E7000088250020F0B52DED45
:102D2000108B87B005460C4628780003697840EA86
:102D30000110A97840EA1116E8780003297940EAE1
:102D40000110697940EA1117FE49B1F90200FDF757
:102D500005FF41EC1C0BFB490888FDF710FF41EC17
:102D60001F0B9FEDF90B53EC102BFDF788FECDE9FF
:102D700004013846FDF7F2FE41EC1F0B9FEDF40B0A
:102D800053EC102BFDF77BFE41EC1E0B9DED040B6D
:102D900053EC102BFDF7FBFD41EC1D0B53EC1C2BF2
:102DA000FDF7FBFD41EC180BE649B1F90400FDF716
:102DB000D5FECDE90401E3490888FDF7E0FE41ECCA
:102DC0001F0B9FEDE50B53EC102BFDF758FE41EC6C
:102DD0001D0B3846FDF7C2FE41EC1F0B9FEDE00BCB
:102DE00053EC102BFDF74BFE41EC1E0B53EC1D2B4F
:102DF000FDF7CDFD41EC1C0BD2490888FDF7BFFE65
:102E000041EC1F0B9FEDD40B53EC102BFDF737FE5D
:102E100041EC1D0B3846FDF7A1FE41EC1F0B9FED69
:102E2000D00B53EC102BFDF72AFE41EC1E0B53EC9C
:102E30001D2BFDF7ACFD53EC1C2BCDE900019DEDE6
:102E4000000B51EC100BFDF7A8FDCDE902019DED43
:102E5000040B53EC102B9DED020B51EC100BFDF706
:102E60009CFD41EC190B53EC192B51EC180BFDF7A1
:102E7000EDFC41EC1C0BFDF78FFEB249886153EC71
:102E8000192B51EC180BFDF7E1FC41EC1D0B9FEDEC
:102E9000B60B53EC102BFDF7F2FD41EC1C0BFDF7CC
:102EA000C5FE2060A7498869FDF758FE41EC1D0B5F
:102EB0009FEDAF0B53EC102BFDF7E1FD41EC1C0B2C
:102EC0009FEDAD0B53EC102BFDF761FD41EC180BA2
:102ED0009C49B1F91000FDF741FE41EC1D0B53EC8C
:102EE000182B51EC180BFDF758FD41EC1E0B53EC61
:102EF0001D2BFDF752FD41EC1C0B9FEDA10B53EC7C
:102F0000102BFDF7BCFD41EC190B8E49B1F90E00F9
:102F1000FDF724FE41EC1E0B53EC182BFDF73DFD95
:102F200041EC1D0B9FED920B53EC102BFDF735FD83
:102F300041EC1C0B53EC192BFDF788FC41EC190BF1
:102F40008049B1F90C00FDF709FE41EC1E0B9FED25
:102F50008E0B53EC102BFDF720FD41EC1C0B9FED6D
:102F60008C0B53EC102B51EC190BFDF788FD41EC49
:102F70001D0B53EC1C2BFDF769FC41EC190B71493F
:102F8000B1F90800FDF7EAFD41EC1F0B53EC182BDB
:102F9000FDF703FD41EC1D0B6A49B1F90A00FDF78D
:102FA000DDFD53EC182BCDE902019DED020B51EC38
:102FB000100BFDF7F2FC53EC182BCDE904019DED4D
:102FC000040B51EC100BFDF7E8FC41EC1F0B9FEDDF
:102FD000720B53EC102BFDF752FD41EC1E0B53EC22
:102FE0001D2BFDF733FC41EC1C0B9FED6B0B53ECE1
:102FF000102BFDF744FD41EC180B5249C888FDF732
:10300000BEFD41EC1C0B9FED5E0B53EC102B51EC05
:10301000180BFDF734FD41EC1E0B9FED610B53ECDB
:10302000102BFDF713FC41EC1D0B53EC1C2BFDF793
:10303000B4FC41EC180B9FED5C0B53EC102B51ECE6
:10304000180BFDF7DBFD04D19FED590A84ED010A51
:10305000CFE03046FDF782FD41EC1C0B9FED550B98
:1030600053EC102BFDF796FC41EC1A0B9FED530B24
:1030700053EC102B51EC190BFDF701FD41EC1E0B2D
:1030800053EC1A2BFDF786FC41EC1D0B9FED4D0B0D
:1030900053EC102BFDF781FC41EC1C0B53EC182B6F
:1030A000FDF7EDFC41EC1A0B2649B1F91600FDF7CE
:1030B00055FD41EC1E0B53EC1A2BFDF76EFC41EC59
:1030C0001D0B53EC1A2BFDF768FC41EC1C0B9FED1C
:1030D0003F0B53EC102BFDF7D2FC41EC180B1949B8
:1030E000B1F91400FDF73AFD41EC1D0B53EC1A2B1E
:1030F000FDF753FC41EC1C0B9FED210B53EC102B07
:10310000FDF7BDFC41EC190B0E49B1F91200FDF7BA
:1031100025FD41EC1E0B53EC192B51EC180BFDF760
:1031200095FB41EC1F0B53EC1E2BFDF78FFB41EC85
:103130001D0B9FED280B53EC102BFDF7A0FC41EC71
:103140001C0B4BE088250020000000000000904090
:10315000000000000000D040000000000000C0405F
:103160000000000000000041000000000000B4402A
:103170000000000000000040000000000040EF40A0
:10318000000000000000E040000000000000F040EF
:10319000000000000000104000000000000020417E
:1031A000000000000000F03F0000000000000000F0
:1031B000000000000000000000003041000000009E
:1031C0000000B04000000000006AB84000000000AD
:1031D0000000E041000000000000304053EC1A2BDA
:1031E000FDF734FB41EC1A0B51EC1A0BFDF71EFDF9
:1031F00060601FED11BA94ED010ADFED310AB4EE03
:10320000E00AF1EE10FA17DD94ED010ADFED2D0A68
:1032100080EE201AF0EE41BADFED2B0AB0EE6B0A19
:103220000EF060FBF7EE000A30EEC00ADFED270A71
:1032300020EE200AB0EE40BA2548007898BB94ED05
:10324000010ADFED240AB4EEE00AF1EE10FA25DD02
:1032500094ED010ADFED200AB4EEE00AF1EE10FA77
:103260001CD21E4890ED000A30EE0B0A80ED000AD9
:103270001B480068401C1A4908600846006832284C
:103280000CDB164890ED000ADFED160A80EE201ADE
:10329000154880ED001A01200D4908701FED3C0A09
:1032A00084ED020A07E0FFE70F4890ED000A3BEECD
:1032B000400A84ED020A07B0BDEC108BF0BD00009F
:1032C00000401C46F375C347B1DC423E002A2D473F
:1032D000C001002000409C47009CE047C80100203E
:1032E000C401002000004842BC01002010B5044683
:1032F00006232246F721EC200AF0D5FC10BD38B594
:1033000004460020009001236A462146EC200AF082
:10331000CAFC9DF8000038BD13B50446012301AA7C
:103320002146EC200AF003FD1CBD00002DED028BB0
:1033300084B00026FFF718FB002838D05C21B3A02A
:10334000FDF702F828B15C21B0A0FCF7FDFF401C9E
:1033500000E0AEA007462F21FCF7F6FF88B15C2104
:10336000AAA0FCF7F1FF28B15C21A8A0FCF7ECFFB4
:10337000401C00E0A5A007462F21FCF7E5FF401CFC
:103380000BE05C21A1A0FCF7DFFF28B15C219FA02E
:10339000FCF7DAFF401C00E09CA0054640F2A122A9
:1033A0002946A1A010F080F8002010F05DFA00F08E
:1033B000EBFB002838D05C2194A0FCF7C5FF28B1B6
:1033C0005C2192A0FCF7C0FF401C00E08FA00746E4
:1033D0002F21FCF7B9FF88B15C218CA0FCF7B4FF6A
:1033E00028B15C2189A0FCF7AFFF401C00E087A05A
:1033F00007462F21FCF7A8FF401C0BE05C2183A0AF
:10340000FCF7A2FF28B15C2180A0FCF79DFF401CC7
:1034100000E07EA0054640F2A62229468DA010F0CD
:1034200043F8002010F020FA07F07AFE012008F09F
:103430003BF8002838D15C2174A0FCF785FF28B147
:103440005C2172A0FCF780FF401C00E06FA00746E3
:103450002F21FCF779FF88B15C216CA0FCF774FF89
:1034600028B15C2169A0FCF76FFF401C00E067A059
:1034700007462F21FCF768FF401C0BE05C2163A08E
:10348000FCF762FF28B15C2160A0FCF75DFF401CE7
:1034900000E05EA005464FF42B7229467AA010F09A
:1034A00003F8002010F0E0F95C2158A0FCF74CFF75
:1034B00028B15C2155A0FCF747FF401C00E053A059
:1034C00007462F21FCF740FF88B15C214FA0FCF795
:1034D0003BFF28B15C214DA0FCF736FF401C00E00B
:1034E0004AA007462F21FCF72FFF401C0BE05C2170
:1034F00046A0FCF729FF28B15C2144A0FCF724FF7B
:10350000401C00E041A0054640F2AF222946694830
:103510000FF0CAFF6848446876E067484568281B92
:1035200000EE100AF8EE400A644890ED000AB8EE8A
:10353000400A80EE801AB0EE418A2C466048FFF7C0
:10354000D5FE68BB5F495E48FFF7E8FB5E4801F0C7
:1035500075F98DED010ACDED020A8DED031A9DED91
:10356000030ADFED5A0A20EE200AF0EE408A5548A1
:10357000D0ED020AB0EE600AB0EE481AF0EE680A2A
:10358000534807F08BF8524890ED000A514880EDFF
:10359000000A4F4890ED010A4F4880ED000A00BF35
:1035A0004E4800F06DFC18B310F0FCFB074639469E
:1035B0004A4807F0F1FF07F0ADFDA0B107F0A0FD0C
:1035C0000746474A3946454800F06AFA58B10FF0B5
:1035D000DFFF4448424B0ECB0EC001204249087029
:1035E0000FF0E8FF02E000203F490870002607E0E6
:1035F00000203D4908701EB901260B2000F0A6F9F5
:10360000142010F021F800BF87E700004170706CB3
:1036100069636174696F6E5C4170705F6672656545
:1036200052544F532E6300005B25733A25645D208E
:10363000424D5033383820696E6974206661696C78
:103640006564212048616C74696E67207461736BD6
:103650002E0D0A005B25733A25645D20436F6D7063
:1036600061737320696E6974206661696C65642199
:103670002048616C74696E672073656E736F722089
:103680007461736B2E0D0A005B25733A25645D200F
:103690004D4147206175746F2063616C696272618E
:1036A00074696F6E207374617274206661696C65F1
:1036B000640D0A0014440108001000E07C000020A2
:1036C00010010020602300206C2300200AE81C4128
:1036D0002824002030010020340100204401002073
:1036E000102400201C2400204C01002000BFFEE715
:1036F00008B519E04FF0FF3269460C48006810F039
:1037000083FA012810D19DF8000000F015F8044656
:103710004CB10A200FF098FF214605A00FF0C4FE1F
:1037200014200FF091FF00BFE4E70000900100209B
:1037300025730D0A00000000014611292AD2DFE896
:1037400001F029090B0D0F11131517191B1D1F214E
:10375000232527001048704710A0FCE713A0FAE7C4
:103760001648F8E71648F6E716A0F4E720A0F2E7B7
:103770002C48F0E72CA0EEE73AA0ECE73EA0EAE701
:103780004BA0E8E751A0E6E759A0E4E761A0E2E733
:1037900066A0E0E70020DEE7584401085B464C499C
:1037A0004748545D2041524D454400005B464C491A
:1037B0004748545D204C4F434B454400E4440108C6
:1037C0002C4501085B4D41475D2043414C20494E4B
:1037D0002050524F47524553533A206B6565702035
:1037E000726F746174696E6720736C6F776C7900A7
:1037F0005B4D41475D2043414C2056414C4944417B
:1038000054494E473A206B65657020726F7461743D
:10381000696E6720666F722061626F757420313047
:1038200020730000A04401085B4D41475D204341E7
:103830004C204641494C45443A2072656D6F76658F
:10384000206D61676E6574696320696E7465726668
:103850006572656E636520616E642072657472794D
:10386000000000005B4D41475D2043414C20414238
:103870004F525445440000005B4D41475D20524586
:103880004144204641494C45443A20636865636B96
:1038900020484D43353838334C20706F776572209F
:1038A000616E642049324320776972696E67000057
:1038B0005B4D41475D20494E544552464552454E69
:1038C0004345204445544543544544005B52435DC1
:1038D0002050504D204C4F53543A20666C69676815
:1038E00074206F7574707574206C6F636B65640001
:1038F0005B494D555D204641494C5552453A20663D
:103900006C69676874206F7574707574206C6F6370
:103910006B6564005B464C494748545D20454D4506
:103920005247454E43592053544F50005B4E4F541D
:103930004943455D2070656E64696E6720616C6502
:1039400072742073746F70706564000001B50A486A
:10395000006838B19DF80000002803DD9DF80000E4
:10396000112801DB002008BD00231A4669460248E1
:10397000006810F0BDF8F6E7900100200346042B24
:1039800015D007DC7BB1012B0ED0022B0DD0032B01
:1039900012D10BE0202B0BD0212B0AD0222B09D0E7
:1039A000232B09D107E008E007E006E005E004E08A
:1039B00003E002E001E000E000BF00BF002070472C
:1039C0000020704710B50022044905480BF037FA73
:1039D000044903480BF024FA002010BDBC1300205A
:1039E000E0060020BC0B002070B505460C462068A0
:1039F0007F2801D2206800E07F2006463246294613
:103A00000848FCF76EFC002006498855012006494D
:103A10000870294605480BF003FA04480BF0CCF96E
:103A2000002070BDBC1B002058000020E0060020D4
:103A300010B503460C460021084610BD2DE9F041A3
:103A400004460D4600260A48D0F8BC72D7F8140286
:103A500010B10120BDE8F0812A46214604480BF050
:103A6000EEF903480BF09EFA06463046F2E70000F6
:103A7000E006002003468B4201DA08467047934275
:103A800001DD1046FAE71846F8E703468B4201DDF0
:103A900008467047934201DA1046FAE71846F8E7FD
:103AA000034603B10AB90020704701B91F49B3F9B1
:103AB000000001EE900AF8EEE11A91ED002A71EE95
:103AC000C21A91ED032A21EE820AB3F9020001EE37
:103AD000900AF8EEE11A91ED012A71EEC21A91ED09
:103AE000042A61EE820AB3F9040001EE900AF8EEAE
:103AF000E11A91ED022A71EEC21A91ED052A21EE2A
:103B0000821ADFED0B1A60EE211AC2ED001ADFED0A
:103B1000081A60EEA11AC2ED011ADFED051A61EE76
:103B2000211AC2ED021A0120BEE700002842010856
:103B3000D1E3BB3D024602B109B90020704750787D
:103B4000137840EA032000B20880D078937840EAE6
:103B5000032000B288805079137940EA032000B234
:103B60004880B1F9000010F5805F09D0B1F902007A
:103B700010F5805F04D0B1F9040010F5805F01D129
:103B80000020DBE70120D9E730B587B05C218BA0AE
:103B9000FCF7DAFB28B15C2188A0FCF7D5FB401CC0
:103BA00000E086A005462F21FCF7CEFB88B15C2102
:103BB00082A0FCF7C9FB28B15C2180A0FCF7C4FB04
:103BC000401C00E07DA005462F21FCF7BDFB401CFA
:103BD0000BE05C2179A0FCF7B7FB28B15C2177A052
:103BE000FCF7B2FB401C00E074A0044622222146F0
:103BF00078A00FF059FC002006900A20012106AAA7
:103C00000B46CDE90021029002463C217B4802F0A0
:103C1000C7FB00287CD15C2168A0FCF795FB28B18C
:103C20005C2166A0FCF790FB401C00E063A0054609
:103C30002F21FCF789FB88B15C2160A0FCF784FB95
:103C400028B15C215DA0FCF77FFB401C00E05BA07D
:103C500005462F21FCF778FB401C0BE05C2157A0A8
:103C6000FCF772FB28B15C2154A0FCF76DFB401CF3
:103C700000E052A004469DF818302722214660A09B
:103C80000FF012FC782005900A20012105AA0B46AE
:103C9000CDE90021029000223C21584802F004FDA9
:103CA000202004900A20012104AA0B46CDE900211E
:103CB00002900A463C21514802F0F6FC0020039095
:103CC0000A20012103AA0B46CDE90021029002221D
:103CD0003C214A4802F0E8FC5C2138A0FCF734FBA8
:103CE00028B15C2135A0FCF72FFB401C00E033A07D
:103CF00005462F21FCF728FB90B15C212FA0FCF793
:103D000023FB30B15C212DA0FCF71EFB401C01E021
:103D10001BE02AA005462F21FCF716FB401C0BE0F8
:103D20005C2126A0FCF710FB28B15C2123A0FCF746
:103D30000BFB401C00E021A00446322221463BA0A0
:103D40000FF0B2FB002007B030BD5C211BA0FCF7D8
:103D5000FBFA28B15C2119A0FCF7F6FA401C00E040
:103D600016A005462F21FCF7EFFA88B15C2113A0BD
:103D7000FCF7EAFA28B15C2110A0FCF7E5FA401C38
:103D800000E00EA005462F21FCF7DEFA401C0BE0F8
:103D90005C210AA0FCF7D8FA28B15C2107A0FCF747
:103DA000D3FA401C00E005A004463622214628A094
:103DB0000FF07AFB4FF0FF30C5E700004170706CE8
:103DC00069636174696F6E5C436F6D706173732EAC
:103DD000630000005B25733A25645D202D2D2D20A6
:103DE000496E697469616C697A696E6720484D43F0
:103DF000353838334C202D2D2D0D0A00940300202A
:103E00005B25733A25645D20484D43353838334C83
:103E100020526573706F6E64656421202849443AAE
:103E200020307825303258290D0A00005B25733A7E
:103E300025645D20484D43353838334C20496E6940
:103E400074205375636365737366756C210D0A0086
:103E50005B25733A25645D20484D43353838334C33
:103E600020496E6974204661696C6564212043684D
:103E700065636B20576972696E672E0D0A0000003A
:103E80003EB5044614200621084A0123CDE900214D
:103E9000029003223C21064802F082FA08B1002079
:103EA0003EBD21460148FFF745FEF9E7CC01002061
:103EB0009403002010B5024801F05CFE10BD000024
:103EC000E803002010B5024801F054FE10BD0000C8
:103ED0003806002010B5024801F04CFE10BD00006D
:103EE000A004002010B5024801F044FE10BD0000FF
:103EF000000500200146087810381823B0FBF3F2C3
:103F00000848805CC865032A05D908686FF3090072
:103F1000001D886503E008686FF309008865886DF7
:103F200070470000E4410108014600208A6A8B695D
:103F3000CBB932B1012A0DD0022A03D0032A10D105
:103F40000EE000BFCB6A03F08073B3F1807F00D135
:103F5000012007E0CB6AB3F1C07F00D1012001E06E
:103F600000E000BF34E08B69B3F5005F1AD132B1D5
:103F7000012A07D0022A03D0032A11D10AE000BF88
:103F800001200EE0CB6A03F08073B3F1807F00D193
:103F9000012006E0CB6AB3F1C07F00D1012000E030
:103FA00000BF15E032B1012A05D0022A04D0032A4D
:103FB0000CD103E000BF00BF012008E0CB6A03F092
:103FC0008073B3F1807F00D1012000E000BF00BF0B
:103FD000704730B50468246824F4802405682C6098
:103FE000046863608468402C04D10468A26004689B
:103FF000E16003E00468A1600468E26030BD7047DE
:1040000010B5042001F0C8FF10BD10B5402001F02C
:10401000C3FF10BD4FF47A70074909684863064929
:104020000968886304490968C86303490968086422
:1040300072B600BFFEE700006005002000B52DED60
:10404000060B89B009A807C803AB07C30CA807C8AB
:1040500006AB07C3DDED082A9DED072ADDED061A44
:104060009DED051ADDED040A9DED030A01F0F8FB54
:104070008DED000ACDED010A8DED021A9DED021ABB
:10408000DDED010A9DED000A01F096FCB5EEC00AD7
:10409000F1EE10FA29D2DDED0E2A9DED0D2ADDEDAF
:1040A0000C1A9DED0B1ADDED0A0A9DED090A01F0CF
:1040B000A2FB8DED060ACDED070A8DED081A9DEDE8
:1040C000081ADDED070A9DED060A01F02AFC8DEDC8
:1040D000030ACDED040A8DED051A9DED030ADDED11
:1040E000040A9DED051A0FB000BDDDED0E2A9DED11
:1040F0000D2ADDED0C1A9DED0B1ADDED0A0A9DED82
:10410000090A01F078FB8DED000ACDED010A8DED75
:10411000021A9DED000ADDED010A9DED021AE2E7AB
:104120002DED0A8B94B05C21FEA0FCF70DF928B1AF
:104130005C21FCA0FCF708F9401C00E0F9A08046D7
:104140002F21FCF701F988B15C21F6A0FCF7FCF8FF
:1041500028B15C21F3A0FCF7F7F8401C00E0F1A0C7
:1041600080462F21FCF7F0F8401C0BE05C21EDA00D
:10417000FCF7EAF828B15C21EAA0FCF7E5F8401C5E
:1041800000E0E8A006464FF405723146ECA00FF0BF
:104190008BF900245C21E3A0FCF7D6F828B15C2160
:1041A000E0A0FCF7D1F8401C00E0DEA080462F2103
:1041B000FCF7CAF888B15C21DAA0FCF7C5F828B191
:1041C0005C21D8A0FCF7C0F8401C00E0D5A08046D8
:1041D0002F21FCF7B9F8401C0BE05C21D1A0FCF7C3
:1041E000B3F828B15C21CFA0FCF7AEF8401C00E08A
:1041F000CCA0064640F217223146DBA00FF054F95E
:1042000006F03CF8002835D05C21C6A0FCF79CF8ED
:1042100028B15C21C3A0FCF797F8401C00E0C1A0C6
:1042200080462F21FCF790F888B15C21BDA0FCF7F7
:104230008BF828B15C21BBA0FCF786F8401C00E09D
:10424000B8A080462F21FCF77FF8401C0BE05C21D2
:10425000B4A0FCF779F828B15C21B2A0FCF774F89F
:10426000401C00E0AFA0064640F21A223146C7A02B
:104270000FF01AF95C21ABA0FCF766F828B15C21BD
:10428000A8A0FCF761F8401C00E0A6A080462F2102
:10429000FCF75AF888B15C21A2A0FCF755F828B1C8
:1042A0005C21A0A0FCF750F8401C00E09DA08046D7
:1042B0002F21FCF749F8401C0BE05C2199A0FCF78A
:1042C00043F828B15C2197A0FCF73EF8401C00E0C1
:1042D00094A006464FF407723146B8A00FF0E4F8F8
:1042E000C3484768DFEDC38A9FEDC39A8EE24FF063
:1042F000FF32012100200FF081F80546DDBBBF48E9
:104300000078022805DABD480078401CBB490870D7
:104310002EE00420BA4908700020BA490870002431
:10432000B9490880B94807F0F1FEB94807F0EEFE38
:10433000B84807F0EBFEB84807F0E8FEB74807F0CA
:10434000E5FEB74807F0E2FE4FF47A71B54806F093
:1043500082F94FF47A71B44806F07DF94FF47A711E
:10436000B24806F078F94FF47A71B14806F073F963
:104370009F4847684AE2FFE7002D7CD000209F4914
:1043800008709F48007804280BD1142C01DA601CB7
:1043900084B2142C01DB012000E000209949087050
:1043A00003E0002400209749087091484668F01BFC
:1043B00000EE100AF8EE400A9E4890ED000AB8EEB2
:1043C000400A80EE808A37469B4880789A4949782F
:1043D00040EA012000B200EE100AB8EEC00AF0EE8A
:1043E000409A954800799449C97840EA012000B282
:1043F00000EE100AB8EEC00AB0EE40AA8E488079EE
:104400008D49497940EA012000B200EE100AB8EE69
:10441000C00AF0EE40AA9FED890A39EEC00AF0EE1C
:10442000409A9FED870A3AEE400AB0EE40AA9FED0F
:10443000850A3AEEC00AF0EE40AA7F48807A7E49AB
:10444000497A40EA012000B200EE100AB8EEC0BA84
:104450007948007B7849C97A40EA012000B200EE31
:10446000100AF8EEC0BA7448807B7349497B40EA71
:10447000012000B200E0C8E100EE100AB8EEC0CAA8
:1044800029EEA80ADFED700A80EE201A8DED111AD0
:104490002AEE280ADFED6D0A80EE201A8DED121A41
:1044A0002AEEA80ADFED6A0A80EE201A8DED131AB3
:1044B0002BEE090A8DED0E0A2BEE890A8DED0F0AFF
:1044C0002CEE090A8DED100A0FF062F8614A07CA56
:1044D0000BAB07C3604890F800800FF06BF89DEDC0
:1044E0000C0A8DED080A9DED0B0A8DED090A9DED74
:1044F0000D0AB1EE400A8DED0A0A9DED101ADDEDB0
:104500000F0A9DED0E0A554800F0C2FE8DED0E0A11
:10451000CDED0F0A8DED101AB8F1000F00D09FE01D
:10452000B9E000004170706C69636174696F6E5C22
:104530004170705F6672656552544F532E63000080
:104540005B25733A25645D203D3D3D20466C6967DF
:104550006874207461736B20737461727465642075
:104560003D3D3D0D0A0000005B25733A25645D204A
:10457000496E697469616C697A696E672049434D57
:104580003432363838502E2E2E0D0A005B25733A01
:1045900025645D2049434D34323638385020696EE9
:1045A0006974206661696C6564212048616C746976
:1045B0006E67207461736B2E0D0A00005B25733AE1
:1045C00025645D2049434D34323638385020696EB9
:1045D0006974204F4B2C20656E746572696E67207C
:1045E0006D61696E206C6F6F702E0D0A0000000007
:1045F000001000E00000003A00007A3DA801002011
:1046000074010020750100205C0100205C02002084
:1046100004020020B402002030020020D801002053
:1046200088020020E0020020EC020020F8020020B6
:10463000040300207C0000204F230020CDCCCC3D83
:10464000CDCCECC06666AAC1B22E7E3F20D27F3FA1
:1046500092CB7F3F1C2400204C010020EC23002043
:1046600006F058FDB8B1F0EE484A9DED0A4ADDED7E
:10467000093A9DED083ADDED132A9DED122ADDED94
:10468000111A9DED101ADDED0F0A9DED0E0A60481E
:1046900000F01AFB10E0B0EE483ADDED132A9DED74
:1046A000122ADDED111A9DED101ADDED0F0A9DEDB8
:1046B0000E0A574800F086FD554800F0ACF98DED24
:1046C000000ACDED010A8DED021ACDED031ADDEDE4
:1046D000031A9DED021ADDED010A9DED000A00F0BE
:1046E000CFFF8DED050ACDED060A8DED071A9DED84
:1046F0000E0AB1EE400AF6EE000A20EE200A454806
:10470000D0ED000AB6EE001A00EE810A80ED000A34
:104710009DED0F0AF6EE000A20EE200A3E48D0ED8D
:10472000000AB6EE001A00EE810A80ED000A9DED47
:10473000100AB1EE400AF6EE000A20EE200A3748D1
:10474000D0ED000AB6EE001A00EE810A80ED000AF4
:10475000304890ED000A324880ED000A2E4890ED76
:10476000000A304880ED000A2C4890ED000A2E48DF
:1047700080ED000A9DED050AB1EE400A2B4880ED60
:10478000000A9DED060A2A4880ED000A9DED070A01
:10479000B1EE400A274880ED000AFDF7ADFF1C4846
:1047A00000F01BF904902448006938B122484069A0
:1047B00021490969884201D3012000E00020814697
:1047C0009DF8101009B1012100E00021084649467A
:1047D000B0EE483ADDED132A9DED122ADDED111AF7
:1047E0009DED101ADDED0F0A9DED0E0A06F01CF886
:1047F000B0EE480AFDF700FEB0EE480AFDF782FD74
:10480000B0EE480AFDF7E4F800BF00BF6FE5000016
:104810006C230020AC010020B0010020B401002076
:10482000380100203C01002040010020240100202C
:10483000280100202C010020EC2300200EB5D0ED33
:10484000060A90ED061AB6EE000A10EE810AD0EDC7
:10485000070A90ED071A00EE810AD0ED0A0A20EE51
:10486000200AD0ED070A90ED081A60EE810A90ED5B
:10487000061AD0ED091A41EE610A90ED0B1A00EE0E
:10488000810AD0ED070A90ED091A60EE810A90EDD9
:10489000061AD0ED081A41EE210A90ED0C1A00EE2E
:1048A000810AF0EE000A20EE200A8DED000A90ED5C
:1048B000070AD0ED080A20EE200AD0ED060A90ED96
:1048C000091A00EE810AD0ED0A0A60EE200A90ED86
:1048D000061AD0ED061AB6EE000A11EE210AD0ED46
:1048E000081A90ED082AB0EE401A01EE821AD0EDB7
:1048F0000B1AB0EE600A01EE210AD0ED080A90ED25
:10490000091A60EE810A90ED061AD0ED071A41EE01
:10491000610A90ED0C1A00EE810AF0EE000A20EE1A
:10492000200A8DED010A90ED070AD0ED090A20EE6C
:10493000200AD0ED060A90ED081A00EEC10AD0ED6B
:104940000A0A20EE200AD0ED080A90ED091A60EE5E
:10495000810A90ED061AD0ED071A41EE210A90ED7A
:104960000B1A00EE810A90ED061AD0ED061AF6EE4B
:10497000000A51EE210A90ED091AD0ED091A41EE14
:10498000210A90ED0C1A00EE810AF0EE000A20EEEA
:10499000200A8DED020A017821B1012903D00229F4
:1049A00013D109E000BF9DED020AF7EE000A30EED8
:1049B000600A8DED020A08E09DED020AF7EE000A9A
:1049C00030EE200A8DED020A00BF00BF9DED000A07
:1049D000DDED010A9DED021A0EBD08B5014691F804
:1049E00040008DF8000091F84C008DF80100D1E9ED
:1049F0001B02904201DD012000E000208DF8020042
:104A0000D1E91E02904201DD012000E000208DF876
:104A10000300009808BD90ED060AD0ED070A90ED5E
:104A2000081AD0ED091A704710B50446034920460C
:104A300000F0BCF8204600F003F810BD4042010829
:104A400010B590B0244CD4E901132268E468CDE994
:104A50000E34CDE90C210CA91EC918301EC028380F
:104A6000002109910A910B9109A90EC9C0E90B23F4
:104A70008162002106910791089106A90EC9C0E93B
:104A80000E234163012180F84010B2EE040A80ED4C
:104A9000110A002180F84C1003910491059103A99B
:104AA0000EC9C0E915230165002100910191029111
:104AB0009DE80E00C0E91823C165002180F8681048
:104AC000C16641690167002180F8741081674169FE
:104AD000C16710B010BD00005842010810B52DED9F
:104AE000048B84B00446B0EE408AD4ED081A94EDED
:104AF000082AB6EE001A01EEC21AD4ED091A94ED96
:104B0000092A01EEC21AF0EE410A94ED061AD4ED1C
:104B1000091A21EE211AD4ED071A94ED082A01EEA4
:104B2000821AB0EE410A0CF063FCF0EE408AB0EE5F
:104B3000480A00F06FFC38EEC00AF6EE000A20EEDC
:104B4000200AB0EE409A002000900190029003905D
:104B5000B0EE490A0CF074FD8DED000AB0EE490A82
:104B60000DF0F2F9FFEE000A20EE200A8DED030AA7
:104B7000D4ED093A94ED083AD4ED072A94ED062ACB
:104B8000DDED031A9DED021ADDED010A9DED000A2F
:104B900000F001FD84ED060AC4ED070A84ED081A51
:104BA000C4ED091A04B0BDEC048B10BD70B52DED39
:104BB000028B04460D462878207095ED010A84ED9D
:104BC000010A95ED020AB5EEC00AF1EE10FA02D123
:104BD0009FED3B0A05E095ED020ADFED3A0A20EE73
:104BE000200A84ED020A95ED030AB5EEC00AF1EE43
:104BF00010FA02D19FED320A13E0D5ED030AB0EEB0
:104C0000600A00F007FCF0EE408A0DF09DF9F6EE28
:104C1000000A20EE200AB0EE408AF0EE000A0CF006
:104C200061FE84ED030A95ED040AB5EEC00AF1EECB
:104C300010FA02D19FED220A13E0D5ED040AB0EE7E
:104C4000600A00F0E7FBF0EE408A0DF07DF9F6EE29
:104C5000000A20EE200AB0EE408AF0EE000A0CF0C6
:104C600041FE84ED040A68696061606920676069DB
:104C7000E06795ED010AB5EEC00AF1EE10FA01D039
:104C8000686938B99FED0E0A84ED030A9FED0C0A9E
:104C900084ED040A94F8400018B994ED010A84EDFB
:104CA000110A94ED010AF2EE040A30EEC00AF0EEA9
:104CB000080A80EE201A84ED121ABDEC028B70BD3A
:104CC000FFFF7F7F48E17A3F11B52DED0A0B2DEDF7
:104CD000028BA5B00446B0EE648A2AA807C8C4E9CE
:104CE0000B12A0629DED270AB0EEC00AD4ED020AB5
:104CF000B4EEE00AF1EE10FA15DC9DED280AB0EEF4
:104D0000C00AD4ED020AB4EEE00AF1EE10FA0ADCB1
:104D10009DED290AB0EEC00AD4ED020AB4EEE00A15
:104D2000F1EE10FA13DDD4E90803D4E90612CDE957
:104D30001103CDE90F122046FFF782FE0FA80FC81E
:104D400018340FC4283C012084F84C0000BF94F8AC
:104D5000400000B394ED110AD4ED120A00EEC80A27
:104D600084ED110A94ED110AD4ED010AB4EEE00AC3
:104D7000F1EE10FA06D394ED010AB5EEC00AF1EE99
:104D800010FA08D194ED010A84ED110A002084F88C
:104D9000400084F84C00204604F08BFD84ED0D0AA1
:104DA000C4ED0E0A84ED0F1A002022902390249067
:104DB00022A807C81CAB07C3012084F868009DED3A
:104DC0002C1ADDED2B0A9DED2A0A00F06CFD00285F
:104DD00056D19DED2C1ADDED2B0A9DED2A0A00F02F
:104DE000A0FD8DED100ACDED110A8DED121AD4ED56
:104DF0000F2A94ED0E2AD4ED0D1A9DED121ADDED59
:104E0000110A9DED100AFFF719F984ED140AC4ED9B
:104E1000150A84ED161A94F8400070B994ED161A2C
:104E2000D4ED150A94ED140A00F059FDD4ED030AEF
:104E3000B4EEE00AF1EE10FA06D8002084F868001B
:104E4000E06E0938E06602E0E06E401CE066D4E9FE
:104E50001B01884204DD0020206784F8680001E01F
:104E60006069206700216269E06EFEF703FEE0667C
:104E700094F8680020B9D4E91512206D1CAB07C363
:104E800000201F90209021901FA807C819AB07C3CE
:104E9000012084F874009DED2F1ADDED2E0A9DEDA2
:104EA0002D0A00F000FD002874D1204604F080FD9A
:104EB0008DED100ACDED110A8DED121ADDED2F2AC0
:104EC0009DED2E2ADDED2D1A94ED0F1AD4ED0E0A6C
:104ED00094ED0D0A00F08FFC8DED0D0ACDED0E0A5C
:104EE0008DED0F1A9DED0F1ADDED0E0A9DED0D0AE9
:104EF00000F017FD8DED0A0ACDED0B0A8DED0C1AB1
:104F0000DDED122A9DED112ADDED101A9DED0C1A32
:104F1000DDED0B0A9DED0A0AFFF790F884ED170A04
:104F2000C4ED180A84ED191A94F8400070B994ED94
:104F3000191AD4ED180A94ED170A00F0D0FCD4ED3C
:104F4000040AB4EEE00AF1EE10FA06D8002084F864
:104F50007400A06F0938A06702E0A06F401CA06732
:104F6000D4E91E01884204DD0020E06784F8740063
:104F700001E06069E06700216269A06FFEF77AFDD9
:104F8000A06794F8740020B9D4E91812E06D19AB49
:104F900007C300BFB6EE000A00F03CFAF0EE408A0C
:104FA000F0EE681A9DED291ADDED280A9DED270A1D
:104FB00000F0E5FC8DED160ACDED170A8DED181AFF
:104FC000DDED1B2A9DED1A2ADDED191A9DED1E1A45
:104FD000DDED1D0A9DED1C0A00F0EAFB8DED100AC7
:104FE000CDED110A8DED121A94ED110AF0EE401A72
:104FF0009DED121ADDED110A9DED100A00F0BFFCC7
:105000008DED0D0ACDED0E0A8DED0F1ADDED0F2A97
:105010009DED0E2ADDED0D1A9DED181ADDED170A36
:105020009DED160A00F0C4FB8DED130ACDED140AB8
:105030008DED151A04F118000FC8CDE90D23CDE947
:105040000B0104F118000FC8F0EE481ACDE9062351
:10505000CDE904019DED151ADDED140A9DED130A4D
:1050600000F08DFC8DED080ACDED090A8DED0A1AD0
:105070009DED050AB1EE400ADDED080A20EE200A9A
:10508000DDED060A9DED091A00EEC10ADDED070A05
:105090009DED0A1A00EEC10A8DED000A9DED040A8D
:1050A000DDED080A20EE200ADDED060A9DED0A1A64
:1050B00000EE810ADDED070A9DED091A00EEC10A36
:1050C0008DED010A9DED040ADDED090A20EE200AAE
:1050D000DDED050A9DED0A1A00EEC10ADDED070AB5
:1050E0009DED081A00EE810A8DED020A9DED040A7D
:1050F000DDED0A0A20EE200ADDED050A9DED091A14
:1051000000EE810ADDED060A9DED081A00EEC10AE7
:105110008DED030A9DED000ADDED010A9DED021AF9
:10512000DDED031A8DED0F0ACDED100A8DED111A8C
:10513000CDED121A9DED0B0ADDED0F0A30EE200ABF
:105140008DED070A9DED0C0ADDED100A30EE200A08
:105150008DED080A9DED0D0ADDED110A30EE200AF5
:105160008DED090A9DED0E0ADDED120A30EE200AE2
:105170008DED0A0A9DED070ADDED080A9DED091A7D
:10518000DDED0A1A84ED060AC4ED070A84ED081A5B
:10519000C4ED091AD4ED091A94ED081AD4ED070AE2
:1051A00094ED060A00F064F984ED060AC4ED070ADE
:1051B00084ED081AC4ED091A25B0BDEC028B0BB0C2
:1051C00010BD000011B52DED080B2DED028B83B045
:1051D0000446B0EE438A0020009001900290F0EE69
:1051E000484A9DED024ADDED013A9DED003ADDEDC4
:1051F0000A2A9DED092ADDED081A9DED071ADDED5D
:10520000060A9DED050A2046FFF75EFD94F8400072
:1052100020B19FED050A2046FFF760FC03B0BDEC0E
:10522000028B09B010BD0000000000001EB504464E
:105230000749204600F00EF80020606100900190C0
:1052400002909DE80700C4E90712A0611EBD00009E
:105250006842010810B591E81C0080E81C00D0ED00
:10526000000AB7EE001A81EE200ADFED080A20EEF0
:10527000200A80ED030A90ED020AD0ED000A20EE2C
:10528000200ABCEEC00A80ED040A10BDFDAD003E50
:1052900001B52DED040B8CB00CA90EC9CDE9072387
:1052A0000691D0E907238169CDE90A2309919DED93
:1052B000060ADDED090A30EE600A8DED030A9DED68
:1052C000070ADDED0A0A30EE600A8DED040A9DED55
:1052D000080ADDED0B0A30EE600A8DED050A9DED42
:1052E000030ADDED040A9DED051A8DED0C0ACDEDE6
:1052F0000D0A8DED0E1A9DED0C0AB0EEC00AD0ED30
:10530000010AB4EEE00AF1EE10FA15DC9DED0D0A8B
:10531000B0EEC00AD0ED010AB4EEE00AF1EE10FAE8
:105320000ADC9DED0E0AB0EEC00AD0ED010AB4EE23
:10533000E00AF1EE10FA09DD002141619DED0C0A51
:10534000DDED0D0A9DED0E1A11B000BDD0E904216E
:10535000914209D24169491C41619DED0C0ADDED84
:105360000D0A9DED0E1AEFE7D0E907238169CDE91B
:10537000072306910CA90EC9CDE90423039190EDF2
:10538000030ADDED030A60EE800ACDED000ADDEDD3
:10539000040A60EE800ACDED010ADDED050A60EE3B
:1053A000800ACDED020ADDED000A9DED011ADDED6A
:1053B000021ACDED090A8DED0A1ACDED0B1A9DEDFD
:1053C000060ADDED090A30EE200A8DED030A9DED97
:1053D000070ADDED0A0A30EE200A8DED040A9DED84
:1053E000080ADDED0B0A30EE200A8DED050A9DED71
:1053F000030ADDED040A9DED051A80ED060AC0EDF5
:10540000070A80ED081A9DED0C0ADDED0D0A9DEDF1
:105410000E1A99E7F0EE400A9FED020A20EE800A8C
:105420007047000035FA8E3C08B5F0EE400ACDED2D
:10543000000A0C490098A1EB600000909FED0A0A59
:1054400020EE800A9DED001A20EE011ADDED001A13
:105450009FED060A01EE610A9DED001A20EE010A99
:1054600008BD000012141F5F12D3363FFF51D83F12
:1054700000B52DED040B2DED028B9DB01FA80FC8BC
:10548000CDE91501CDE91723CDE91323CDE91101AC
:1054900011A80FC8CDE90501CDE90723CDE90B23FC
:1054A000CDE909019DED050ADDED090A20EE200A8E
:1054B0008DED010A9DED060ADDED0A0A20EE200AB7
:1054C0008DED020A9DED070ADDED0B0A20EE200AA4
:1054D0008DED030A9DED080ADDED0C0A20EE200A91
:1054E0008DED040A9DED010ADDED020A9DED031A22
:1054F000DDED041A8DED0D0ACDED0E0A8DED0F1ABE
:10550000CDED101A9DED0D0ADDED0E0A30EE200AEC
:10551000DDED0F0A30EE200ADDED100A30EE200A34
:1055200000BFF0EE408AFFF77FFFB0EE408A9DEDAE
:10553000150A20EE080A8DED110A9DED160A20EEDF
:10554000080A8DED120A9DED170A20EE080A8DED6E
:10555000130A9DED180A20EE080A8DED140A9DED40
:10556000110ADDED120A9DED131ADDED141A8DED11
:10557000190ACDED1A0A8DED1B1ACDED1C1A9DED01
:10558000190ADDED1A0A9DED1B1ADDED1C1A1DB07E
:10559000BDEC028B0FBD2DED080B84B09DED040A10
:1055A000DDED080A20EE200ADDED050A9DED091A61
:1055B00000EEC10ADDED060A9DED0A1A00EEC10AF1
:1055C000DDED070A9DED0B1A00EEC10A8DED000A14
:1055D0009DED040ADDED090A20EE200ADDED050A45
:1055E0009DED081A00EE810ADDED060A9DED0B1A0D
:1055F00000EE810ADDED070A9DED0A1A00EEC10AF0
:105600008DED010A9DED040ADDED0A0A20EE200A67
:10561000DDED050A9DED0B1A00EEC10ADDED060A6F
:105620009DED081A00EE810ADDED070A9DED091ACD
:1056300000EE810A8DED020A9DED040ADDED0B0AF4
:1056400020EE200ADDED050A9DED0A1A00EE810A22
:10565000DDED060A9DED091A00EEC10ADDED070A2F
:105660009DED081A00EE810A8DED030A9DED000AFA
:10567000DDED010A9DED021ADDED031A0CB0704755
:1056800000B52DED040B2DED028B83B09DED051AB9
:1056900021EE011ADDED081A9DED082A01EE821AAD
:1056A000F6EE001A31EE611AF0EE410A9DED071A8E
:1056B000DDED081A21EE211ADDED051A9DED062A11
:1056C00001EE821AB0EE410A0BF092FEB0EE408A73
:1056D00000F064F88DED000A9DED050ADDED070A86
:1056E00020EE200ADDED060A9DED081A00EEC10A43
:1056F000F0EE000A20EE208ABFEE000AB4EEC08A67
:10570000F1EE10FA02D89FED230A0DE0B7EE000A81
:10571000B4EEC08AF1EE10FA02DB9FED1F0A03E03F
:10572000B0EE480A0BF0CEFDF0EE408A00F036F8FD
:105730008DED010A9DED051A21EE011ADDED061A27
:105740009DED062A01EE821AF6EE001A31EE611A7C
:10575000F0EE410A9DED061ADDED071A21EE211A41
:10576000DDED051A9DED082A01EE821AB0EE410A20
:105770000BF03EFEB0EE408A00F010F88DED020A0C
:105780009DED000ADDED010A9DED021A03B0BDECAE
:10579000028B0FBDDB0FC9BFDB0FC93FF0EE400A24
:1057A0009FED020A20EE800A70470000E02E65425D
:1057B0002DED060B83B09DED030ADDED060A30EEFC
:1057C000200A8DED000A9DED040ADDED070A30EE9A
:1057D000200A8DED010A9DED050ADDED080A30EE87
:1057E000200A8DED020A9DED000ADDED010A9DED16
:1057F000021A09B070472DED060B83B09DED040A27
:10580000DDED080A20EE200ADDED050A9DED071A00
:1058100000EEC10A8DED000A9DED050ADDED060AD8
:1058200020EE200ADDED030A9DED081A00EEC10A04
:105830008DED010A9DED030ADDED070A20EE200A39
:10584000DDED040A9DED061A00EEC10A8DED020A97
:105850009DED000ADDED010A9DED021A09B07047C9
:105860002DED060B83B09DED030ADDED060A20EE5B
:10587000200A8DED000A9DED040ADDED070A20EEF9
:10588000200A8DED010A9DED050ADDED080A20EEE6
:10589000200A8DED020A9DED000ADDED010A9DED65
:1058A000021A09B070472DED040B9DED000AB5EE0C
:1058B000C00AF1EE10FA10D19DED010AB5EEC00A52
:1058C000F1EE10FA09D19DED020AB5EEC00AF1EE33
:1058D00010FA02D1012004B070470020FBE700B5A8
:1058E0002DED040B83B0DDED052A9DED042ADDEDE1
:1058F000031A9DED051ADDED040A9DED030AFFF77D
:10590000AFFF8DED000ACDED010A8DED021A9DED80
:10591000021ADDED010A9DED000A00F04DF807B016
:1059200000BD00B52DED040B2DED028B83B09DED78
:10593000071ADDED060A9DED050AFFF7D0FFF0EE30
:10594000408AFFF771FDB0EE408AF0EE481A9DEDF7
:10595000071ADDED060A9DED050A00F010F88DED41
:10596000000ACDED010A8DED021A9DED000ADDED74
:10597000010A9DED021A03B0BDEC028B0FBD2DEDA7
:10598000040B83B09DED030A20EE210A8DED000A81
:105990009DED040A20EE210A8DED010A9DED050A18
:1059A00020EE210A8DED020A9DED000ADDED010ACF
:1059B0009DED021A07B070472DED040B9DED000A16
:1059C000DDED010A30EE200ADDED020A30EE200A9C
:1059D00004B070471D48B0F9020000EE100AB8EE9E
:1059E000C00A9FED1B1A30EE410A9FED191AC0EE56
:1059F000011AF0EE610AB0EEE00A9FED161AB4EE5D
:105A0000C10AF1EE10FA02D29FED130A7047F5EECB
:105A1000C00AF1EE10FA0ADD9FED0E0A30EEC00A60
:105A20009FED0E1AC0EE011AF0EE610A09E09FED3B
:105A3000090A30EE800A9FED091AC0EE011AF0EE55
:105A4000610A9FED070A20EE800ADFE75C01002073
:105A50000000FA430AD7A33D000000001F856B3FFA
:105A60000000F04270B50A480468001D0568001D7A
:105A70000668344454B108220649204604F0A3FDC8
:105A8000042204491031284604F09DFD70BD000039
:105A9000107AFF1F3E00002070B50446A56D00F08F
:105AA00091FB064694F83500022808D080206065F6
:105AB00000BF002084F8340000BF012070BD2068C2
:105AC000006820F01600216808602068406920F016
:105AD000800021684861206C08B9A06C28B120685A
